{
  "_format": "hh-sol-artifact-1",
  "contractName": "RushStaking",
  "sourceName": "contracts/RushStaking.sol",
  "abi": [
    {
      "inputs": [
        {
          "internalType": "uint256",
          "name": "_stakingApy",
          "type": "uint256"
        },
        {
          "internalType": "address",
          "name": "_stakingToken",
          "type": "address"
        }
      ],
      "stateMutability": "nonpayable",
      "type": "constructor"
    },
    {
      "anonymous": false,
      "inputs": [
        {
          "indexed": true,
          "internalType": "address",
          "name": "user",
          "type": "address"
        },
        {
          "indexed": false,
          "internalType": "uint256",
          "name": "totalAmount",
          "type": "uint256"
        }
      ],
      "name": "Funded",
      "type": "event"
    },
    {
      "anonymous": false,
      "inputs": [
        {
          "indexed": true,
          "internalType": "address",
          "name": "user",
          "type": "address"
        },
        {
          "indexed": false,
          "internalType": "uint256",
          "name": "reward",
          "type": "uint256"
        }
      ],
      "name": "RewardClaimed",
      "type": "event"
    },
    {
      "anonymous": false,
      "inputs": [
        {
          "indexed": true,
          "internalType": "address",
          "name": "user",
          "type": "address"
        },
        {
          "indexed": false,
          "internalType": "uint256",
          "name": "amount",
          "type": "uint256"
        },
        {
          "indexed": false,
          "internalType": "uint256",
          "name": "lockPeriod",
          "type": "uint256"
        }
      ],
      "name": "Staked",
      "type": "event"
    },
    {
      "anonymous": false,
      "inputs": [
        {
          "indexed": true,
          "internalType": "address",
          "name": "user",
          "type": "address"
        },
        {
          "indexed": false,
          "internalType": "uint256",
          "name": "totalAmount",
          "type": "uint256"
        }
      ],
      "name": "Withdrawn",
      "type": "event"
    },
    {
      "inputs": [
        {
          "internalType": "address",
          "name": "user",
          "type": "address"
        }
      ],
      "name": "calculateDailyReward",
      "outputs": [
        {
          "internalType": "uint256",
          "name": "",
          "type": "uint256"
        }
      ],
      "stateMutability": "view",
      "type": "function"
    },
    {
      "inputs": [],
      "name": "claimRewards",
      "outputs": [],
      "stateMutability": "nonpayable",
      "type": "function"
    },
    {
      "inputs": [
        {
          "internalType": "address",
          "name": "user",
          "type": "address"
        }
      ],
      "name": "distributeReward",
      "outputs": [],
      "stateMutability": "nonpayable",
      "type": "function"
    },
    {
      "inputs": [
        {
          "internalType": "uint256",
          "name": "amount",
          "type": "uint256"
        }
      ],
      "name": "fundPoolReward",
      "outputs": [],
      "stateMutability": "nonpayable",
      "type": "function"
    },
    {
      "inputs": [],
      "name": "getContractBalance",
      "outputs": [
        {
          "internalType": "uint256",
          "name": "",
          "type": "uint256"
        }
      ],
      "stateMutability": "view",
      "type": "function"
    },
    {
      "inputs": [],
      "name": "owner",
      "outputs": [
        {
          "internalType": "address",
          "name": "",
          "type": "address"
        }
      ],
      "stateMutability": "view",
      "type": "function"
    },
    {
      "inputs": [],
      "name": "pooledRewardTokens",
      "outputs": [
        {
          "internalType": "uint256",
          "name": "",
          "type": "uint256"
        }
      ],
      "stateMutability": "view",
      "type": "function"
    },
    {
      "inputs": [
        {
          "internalType": "uint256",
          "name": "_lockPeriod",
          "type": "uint256"
        },
        {
          "internalType": "uint256",
          "name": "_amount",
          "type": "uint256"
        }
      ],
      "name": "stake",
      "outputs": [],
      "stateMutability": "payable",
      "type": "function"
    },
    {
      "inputs": [],
      "name": "stakingApy",
      "outputs": [
        {
          "internalType": "uint256",
          "name": "",
          "type": "uint256"
        }
      ],
      "stateMutability": "view",
      "type": "function"
    },
    {
      "inputs": [],
      "name": "stakingToken",
      "outputs": [
        {
          "internalType": "contract IERC20",
          "name": "",
          "type": "address"
        }
      ],
      "stateMutability": "view",
      "type": "function"
    },
    {
      "inputs": [],
      "name": "totalReward",
      "outputs": [
        {
          "internalType": "uint256",
          "name": "",
          "type": "uint256"
        }
      ],
      "stateMutability": "view",
      "type": "function"
    },
    {
      "inputs": [],
      "name": "totalTokenStaked",
      "outputs": [
        {
          "internalType": "uint256",
          "name": "",
          "type": "uint256"
        }
      ],
      "stateMutability": "view",
      "type": "function"
    },
    {
      "inputs": [
        {
          "internalType": "address",
          "name": "",
          "type": "address"
        }
      ],
      "name": "userStakes",
      "outputs": [
        {
          "internalType": "uint256",
          "name": "amount",
          "type": "uint256"
        },
        {
          "internalType": "uint256",
          "name": "rewardDebt",
          "type": "uint256"
        },
        {
          "internalType": "uint256",
          "name": "lastRewardTime",
          "type": "uint256"
        },
        {
          "internalType": "uint256",
          "name": "lockTime",
          "type": "uint256"
        },
        {
          "internalType": "uint256",
          "name": "startTime",
          "type": "uint256"
        }
      ],
      "stateMutability": "view",
      "type": "function"
    },
    {
      "inputs": [],
      "name": "withdraw",
      "outputs": [],
      "stateMutability": "nonpayable",
      "type": "function"
    },
    {
      "stateMutability": "payable",
      "type": "receive"
    }
  ],
  "bytecode": "0x608060405234801561001057600080fd5b50604051611b7c380380611b7c8339818101604052810190610032919061015b565b8160008190555080600360006101000a81548173ffffffffffffffffffffffffffffffffffffffff021916908373ffffffffffffffffffffffffffffffffffffffff16021790555033600560006101000a81548173ffffffffffffffffffffffffffffffffffffffff021916908373ffffffffffffffffffffffffffffffffffffffff160217905550505061019b565b600080fd5b6000819050919050565b6100da816100c7565b81146100e557600080fd5b50565b6000815190506100f7816100d1565b92915050565b600073ffffffffffffffffffffffffffffffffffffffff82169050919050565b6000610128826100fd565b9050919050565b6101388161011d565b811461014357600080fd5b50565b6000815190506101558161012f565b92915050565b60008060408385031215610172576101716100c2565b5b6000610180858286016100e8565b925050602061019185828601610146565b9150509250929050565b6119d2806101aa6000396000f3fe6080604052600436106100e15760003560e01c80636f9fb98a1161007f5780637b0472f0116100595780637b0472f0146102815780638da5cb5b1461029d5780638da7ad23146102c8578063e38f11cc14610309576100e8565b80636f9fb98a1461020057806372f702f31461022b578063750142e614610256576100e8565b80633ccfd60b116100bb5780633ccfd60b1461015857806340c4da461461016f5780634465d328146101ac5780634c33ce3c146101d7576100e8565b8063092193ab146100ed5780632e559d7914610116578063372500ab14610141576100e8565b366100e857005b600080fd5b3480156100f957600080fd5b50610114600480360381019061010f9190611017565b610334565b005b34801561012257600080fd5b5061012b610570565b604051610138919061105d565b60405180910390f35b34801561014d57600080fd5b50610156610576565b005b34801561016457600080fd5b5061016d610790565b005b34801561017b57600080fd5b5061019660048036038101906101919190611017565b610a46565b6040516101a3919061105d565b60405180910390f35b3480156101b857600080fd5b506101c1610b0b565b6040516101ce919061105d565b60405180910390f35b3480156101e357600080fd5b506101fe60048036038101906101f991906110a4565b610b11565b005b34801561020c57600080fd5b50610215610cec565b604051610222919061105d565b60405180910390f35b34801561023757600080fd5b50610240610cf4565b60405161024d9190611130565b60405180910390f35b34801561026257600080fd5b5061026b610d1a565b604051610278919061105d565b60405180910390f35b61029b6004803603810190610296919061114b565b610d20565b005b3480156102a957600080fd5b506102b2610f52565b6040516102bf919061119a565b60405180910390f35b3480156102d457600080fd5b506102ef60048036038101906102ea9190611017565b610f78565b6040516103009594939291906111b5565b60405180910390f35b34801561031557600080fd5b5061031e610fae565b60405161032b919061105d565b60405180910390f35b6000600660008373ffffffffffffffffffffffffffffffffffffffff1673ffffffffffffffffffffffffffffffffffffffff168152602001908152602001600020905060008160000154116103be576040517f08c379a00000000000000000000000000000000000000000000000000000000081526004016103b590611265565b60405180910390fd5b600060045411610403576040517f08c379a00000000000000000000000000000000000000000000000000000000081526004016103fa906112d1565b60405180910390fd5b6201518081600201546104169190611320565b421015610458576040517f08c379a000000000000000000000000000000000000000000000000000000000815260040161044f906113c6565b60405180910390fd5b600081600201544261046a91906113e6565b90506000620151808261047d9190611449565b9050600061048a85610a46565b90506000818361049a919061147a565b90506000816004546104ac91906113e6565b9050600081116104f1576040517f08c379a00000000000000000000000000000000000000000000000000000000081526004016104e890611508565b60405180910390fd5b818660010160008282546105059190611320565b92505081905550620151808461051b919061147a565b86600201600082825461052e9190611320565b9250508190555081600160008282546105479190611320565b92505081905550816004600082825461056091906113e6565b9250508190555050505050505050565b60025481565b6000600660003373ffffffffffffffffffffffffffffffffffffffff1673ffffffffffffffffffffffffffffffffffffffff16815260200190815260200160002090506000816000015411610600576040517f08c379a00000000000000000000000000000000000000000000000000000000081526004016105f790611265565b60405180910390fd5b61060933610334565b60008160010154905060008111610655576040517f08c379a000000000000000000000000000000000000000000000000000000000815260040161064c90611574565b60405180910390fd5b600360009054906101000a900473ffffffffffffffffffffffffffffffffffffffff1673ffffffffffffffffffffffffffffffffffffffff1663a9059cbb33836040518363ffffffff1660e01b81526004016106b2929190611594565b6020604051808303816000875af11580156106d1573d6000803e3d6000fd5b505050506040513d601f19601f820116820180604052508101906106f591906115f5565b610734576040517f08c379a000000000000000000000000000000000000000000000000000000000815260040161072b9061166e565b60405180910390fd5b3373ffffffffffffffffffffffffffffffffffffffff167f106f923f993c2149d49b4255ff723acafa1f2d94393f561d3eda32ae348f72418260405161077a919061105d565b60405180910390a2600082600101819055505050565b6000600660003373ffffffffffffffffffffffffffffffffffffffff1673ffffffffffffffffffffffffffffffffffffffff1681526020019081526020016000209050600081600001541161081a576040517f08c379a000000000000000000000000000000000000000000000000000000000815260040161081190611265565b60405180910390fd5b8060030154421015610861576040517f08c379a0000000000000000000000000000000000000000000000000000000008152600401610858906116da565b60405180910390fd5b61086a33610334565b80600001546002600082825461088091906113e6565b9250508190555080600101546001600082825461089d9190611320565b92505081905550600360009054906101000a900473ffffffffffffffffffffffffffffffffffffffff1673ffffffffffffffffffffffffffffffffffffffff1663a9059cbb3383600001546040518363ffffffff1660e01b8152600401610905929190611594565b6020604051808303816000875af1158015610924573d6000803e3d6000fd5b505050506040513d601f19601f8201168201806040525081019061094891906115f5565b610987576040517f08c379a000000000000000000000000000000000000000000000000000000000815260040161097e90611746565b60405180910390fd5b3373ffffffffffffffffffffffffffffffffffffffff167f7084f5476618d8e60b11ef0d7d3f06914655adb8793e28ff7f018d4c76d505d582600001546040516109d1919061105d565b60405180910390a2600660003373ffffffffffffffffffffffffffffffffffffffff1673ffffffffffffffffffffffffffffffffffffffff1681526020019081526020016000206000808201600090556001820160009055600282016000905560038201600090556004820160009055505050565b600080600660008473ffffffffffffffffffffffffffffffffffffffff1673ffffffffffffffffffffffffffffffffffffffff1681526020019081526020016000206040518060a00160405290816000820154815260200160018201548152602001600282015481526020016003820154815260200160048201548152505090506000816000015103610add576000915050610b06565b6000618e946000548360000151610af4919061147a565b610afe9190611449565b905080925050505b919050565b60045481565b3373ffffffffffffffffffffffffffffffffffffffff16600560009054906101000a900473ffffffffffffffffffffffffffffffffffffffff1673ffffffffffffffffffffffffffffffffffffffff1614610ba1576040517f08c379a0000000000000000000000000000000000000000000000000000000008152600401610b98906117b2565b60405180910390fd5b600360009054906101000a900473ffffffffffffffffffffffffffffffffffffffff1673ffffffffffffffffffffffffffffffffffffffff166323b872dd3330846040518463ffffffff1660e01b8152600401610c00939291906117d2565b6020604051808303816000875af1158015610c1f573d6000803e3d6000fd5b505050506040513d601f19601f82011682018060405250810190610c4391906115f5565b610c82576040517f08c379a0000000000000000000000000000000000000000000000000000000008152600401610c7990611855565b60405180910390fd5b8060046000828254610c949190611320565b925050819055503373ffffffffffffffffffffffffffffffffffffffff167f5af8184bef8e4b45eb9f6ed7734d04da38ced226495548f46e0c8ff8d7d9a52482604051610ce1919061105d565b60405180910390a250565b600047905090565b600360009054906101000a900473ffffffffffffffffffffffffffffffffffffffff1681565b60015481565b60008111610d63576040517f08c379a0000000000000000000000000000000000000000000000000000000008152600401610d5a906118e7565b60405180910390fd5b6000600660003373ffffffffffffffffffffffffffffffffffffffff1673ffffffffffffffffffffffffffffffffffffffff1681526020019081526020016000209050600081600001541115610dc157610dbc33610334565b610ddf565b8242610dcd9190611320565b81600301819055504281600401819055505b600360009054906101000a900473ffffffffffffffffffffffffffffffffffffffff1673ffffffffffffffffffffffffffffffffffffffff166323b872dd3330856040518463ffffffff1660e01b8152600401610e3e939291906117d2565b6020604051808303816000875af1158015610e5d573d6000803e3d6000fd5b505050506040513d601f19601f82011682018060405250810190610e8191906115f5565b610ec0576040517f08c379a0000000000000000000000000000000000000000000000000000000008152600401610eb790611953565b60405180910390fd5b81816000016000828254610ed49190611320565b925050819055504281600201819055508160026000828254610ef69190611320565b925050819055503373ffffffffffffffffffffffffffffffffffffffff167f1449c6dd7851abc30abf37f57715f492010519147cc2652fbc38202c18a6ee908385604051610f45929190611973565b60405180910390a2505050565b600560009054906101000a900473ffffffffffffffffffffffffffffffffffffffff1681565b60066020528060005260406000206000915090508060000154908060010154908060020154908060030154908060040154905085565b60005481565b600080fd5b600073ffffffffffffffffffffffffffffffffffffffff82169050919050565b6000610fe482610fb9565b9050919050565b610ff481610fd9565b8114610fff57600080fd5b50565b60008135905061101181610feb565b92915050565b60006020828403121561102d5761102c610fb4565b5b600061103b84828501611002565b91505092915050565b6000819050919050565b61105781611044565b82525050565b6000602082019050611072600083018461104e565b92915050565b61108181611044565b811461108c57600080fd5b50565b60008135905061109e81611078565b92915050565b6000602082840312156110ba576110b9610fb4565b5b60006110c88482850161108f565b91505092915050565b6000819050919050565b60006110f66110f16110ec84610fb9565b6110d1565b610fb9565b9050919050565b6000611108826110db565b9050919050565b600061111a826110fd565b9050919050565b61112a8161110f565b82525050565b60006020820190506111456000830184611121565b92915050565b6000806040838503121561116257611161610fb4565b5b60006111708582860161108f565b92505060206111818582860161108f565b9150509250929050565b61119481610fd9565b82525050565b60006020820190506111af600083018461118b565b92915050565b600060a0820190506111ca600083018861104e565b6111d7602083018761104e565b6111e4604083018661104e565b6111f1606083018561104e565b6111fe608083018461104e565b9695505050505050565b600082825260208201905092915050565b7f4e6f20616374697665207374616b6520666f756e640000000000000000000000600082015250565b600061124f601583611208565b915061125a82611219565b602082019050919050565b6000602082019050818103600083015261127e81611242565b9050919050565b7f4e6f20746f6b656e7320696e20706f6f6c20666f722072657761726400000000600082015250565b60006112bb601c83611208565b91506112c682611285565b602082019050919050565b600060208201905081810360008301526112ea816112ae565b9050919050565b7f4e487b7100000000000000000000000000000000000000000000000000000000600052601160045260246000fd5b600061132b82611044565b915061133683611044565b925082820190508082111561134e5761134d6112f1565b5b92915050565b7f526577617264732063616e206f6e6c792062652064697374726962757465642060008201527f6f6e636520612064617900000000000000000000000000000000000000000000602082015250565b60006113b0602a83611208565b91506113bb82611354565b604082019050919050565b600060208201905081810360008301526113df816113a3565b9050919050565b60006113f182611044565b91506113fc83611044565b9250828203905081811115611414576114136112f1565b5b92915050565b7f4e487b7100000000000000000000000000000000000000000000000000000000600052601260045260246000fd5b600061145482611044565b915061145f83611044565b92508261146f5761146e61141a565b5b828204905092915050565b600061148582611044565b915061149083611044565b925082820261149e81611044565b915082820484148315176114b5576114b46112f1565b5b5092915050565b7f43616e6e6f742072657761726420757365720000000000000000000000000000600082015250565b60006114f2601283611208565b91506114fd826114bc565b602082019050919050565b60006020820190508181036000830152611521816114e5565b9050919050565b7f4e6f207265776172647320746f20636c61696d00000000000000000000000000600082015250565b600061155e601383611208565b915061156982611528565b602082019050919050565b6000602082019050818103600083015261158d81611551565b9050919050565b60006040820190506115a9600083018561118b565b6115b6602083018461104e565b9392505050565b60008115159050919050565b6115d2816115bd565b81146115dd57600080fd5b50565b6000815190506115ef816115c9565b92915050565b60006020828403121561160b5761160a610fb4565b5b6000611619848285016115e0565b91505092915050565b7f4661696c656420746f20636c61696d2072657761726400000000000000000000600082015250565b6000611658601683611208565b915061166382611622565b602082019050919050565b600060208201905081810360008301526116878161164b565b9050919050565b7f5374616b65206973207374696c6c206c6f636b65640000000000000000000000600082015250565b60006116c4601583611208565b91506116cf8261168e565b602082019050919050565b600060208201905081810360008301526116f3816116b7565b9050919050565b7f4661696c656420746f207472616e736665722066756e64730000000000000000600082015250565b6000611730601883611208565b915061173b826116fa565b602082019050919050565b6000602082019050818103600083015261175f81611723565b9050919050565b7f4f6e6c792061646d696e00000000000000000000000000000000000000000000600082015250565b600061179c600a83611208565b91506117a782611766565b602082019050919050565b600060208201905081810360008301526117cb8161178f565b9050919050565b60006060820190506117e7600083018661118b565b6117f4602083018561118b565b611801604083018461104e565b949350505050565b7f556e61626c6520746f2066756e6420636f6e7472616374000000000000000000600082015250565b600061183f601783611208565b915061184a82611809565b602082019050919050565b6000602082019050818103600083015261186e81611832565b9050919050565b7f5374616b696e6720616d6f756e74206d7573742062652067726561746572207460008201527f68616e2030000000000000000000000000000000000000000000000000000000602082015250565b60006118d1602583611208565b91506118dc82611875565b604082019050919050565b60006020820190508181036000830152611900816118c4565b9050919050565b7f546f6b656e207472616e73666572206661696c65640000000000000000000000600082015250565b600061193d601583611208565b915061194882611907565b602082019050919050565b6000602082019050818103600083015261196c81611930565b9050919050565b6000604082019050611988600083018561104e565b611995602083018461104e565b939250505056fea26469706673582212207182f50810eb2dd59eadffa3bf9de94ed765b301543e04c8ae2f77b6d2df918164736f6c634300081c0033",
  "linkReferences": {},
  "deployedLinkReferences": {}
}