{
  "_format": "hh-sol-artifact-1",
  "contractName": "RushPresale",
  "sourceName": "contracts/RushPresale.sol",
  "abi": [
    {
      "inputs": [
        {
          "internalType": "address",
          "name": "_token",
          "type": "address"
        },
        {
          "internalType": "uint256",
          "name": "_tokenRatePerEth",
          "type": "uint256"
        },
        {
          "internalType": "uint256",
          "name": "_minPurchase",
          "type": "uint256"
        },
        {
          "internalType": "uint256",
          "name": "_maxPurchase",
          "type": "uint256"
        }
      ],
      "stateMutability": "nonpayable",
      "type": "constructor"
    },
    {
      "anonymous": false,
      "inputs": [
        {
          "indexed": false,
          "internalType": "uint256",
          "name": "amount",
          "type": "uint256"
        }
      ],
      "name": "ContractFunded",
      "type": "event"
    },
    {
      "anonymous": false,
      "inputs": [
        {
          "indexed": true,
          "internalType": "address",
          "name": "buyer",
          "type": "address"
        },
        {
          "indexed": false,
          "internalType": "uint256",
          "name": "ethSpent",
          "type": "uint256"
        },
        {
          "indexed": false,
          "internalType": "uint256",
          "name": "tokensBought",
          "type": "uint256"
        }
      ],
      "name": "TokensPurchased",
      "type": "event"
    },
    {
      "anonymous": false,
      "inputs": [
        {
          "indexed": false,
          "internalType": "uint256",
          "name": "amount",
          "type": "uint256"
        }
      ],
      "name": "TokensWithdrawn",
      "type": "event"
    },
    {
      "stateMutability": "payable",
      "type": "fallback"
    },
    {
      "inputs": [],
      "name": "buyTokens",
      "outputs": [],
      "stateMutability": "payable",
      "type": "function"
    },
    {
      "inputs": [
        {
          "internalType": "uint256",
          "name": "_amount",
          "type": "uint256"
        }
      ],
      "name": "fundContract",
      "outputs": [],
      "stateMutability": "nonpayable",
      "type": "function"
    },
    {
      "inputs": [],
      "name": "maxPurchase",
      "outputs": [
        {
          "internalType": "uint256",
          "name": "",
          "type": "uint256"
        }
      ],
      "stateMutability": "view",
      "type": "function"
    },
    {
      "inputs": [],
      "name": "minPurchase",
      "outputs": [
        {
          "internalType": "uint256",
          "name": "",
          "type": "uint256"
        }
      ],
      "stateMutability": "view",
      "type": "function"
    },
    {
      "inputs": [],
      "name": "owner",
      "outputs": [
        {
          "internalType": "address",
          "name": "",
          "type": "address"
        }
      ],
      "stateMutability": "view",
      "type": "function"
    },
    {
      "inputs": [],
      "name": "token",
      "outputs": [
        {
          "internalType": "contract IERC20",
          "name": "",
          "type": "address"
        }
      ],
      "stateMutability": "view",
      "type": "function"
    },
    {
      "inputs": [],
      "name": "tokenBalance",
      "outputs": [
        {
          "internalType": "uint256",
          "name": "",
          "type": "uint256"
        }
      ],
      "stateMutability": "view",
      "type": "function"
    },
    {
      "inputs": [],
      "name": "tokenRatePerEth",
      "outputs": [
        {
          "internalType": "uint256",
          "name": "",
          "type": "uint256"
        }
      ],
      "stateMutability": "view",
      "type": "function"
    },
    {
      "inputs": [],
      "name": "tokensSold",
      "outputs": [
        {
          "internalType": "uint256",
          "name": "",
          "type": "uint256"
        }
      ],
      "stateMutability": "view",
      "type": "function"
    },
    {
      "inputs": [
        {
          "internalType": "address",
          "name": "",
          "type": "address"
        }
      ],
      "name": "userPurchases",
      "outputs": [
        {
          "internalType": "uint256",
          "name": "",
          "type": "uint256"
        }
      ],
      "stateMutability": "view",
      "type": "function"
    },
    {
      "inputs": [],
      "name": "withdrawETH",
      "outputs": [],
      "stateMutability": "nonpayable",
      "type": "function"
    },
    {
      "inputs": [
        {
          "internalType": "uint256",
          "name": "_amount",
          "type": "uint256"
        }
      ],
      "name": "withdrawTokens",
      "outputs": [],
      "stateMutability": "nonpayable",
      "type": "function"
    },
    {
      "stateMutability": "payable",
      "type": "receive"
    }
  ],
  "bytecode": "0x608060405234801561001057600080fd5b506040516117da3803806117da8339818101604052810190610032919061019f565b600060129050336000806101000a81548173ffffffffffffffffffffffffffffffffffffffff021916908373ffffffffffffffffffffffffffffffffffffffff16021790555084600160006101000a81548173ffffffffffffffffffffffffffffffffffffffff021916908373ffffffffffffffffffffffffffffffffffffffff1602179055508360028190555080600a6100cd9190610368565b836100d891906103b3565b60048190555080600a6100eb9190610368565b826100f691906103b3565b60058190555050505050506103f5565b600080fd5b600073ffffffffffffffffffffffffffffffffffffffff82169050919050565b60006101368261010b565b9050919050565b6101468161012b565b811461015157600080fd5b50565b6000815190506101638161013d565b92915050565b6000819050919050565b61017c81610169565b811461018757600080fd5b50565b60008151905061019981610173565b92915050565b600080600080608085870312156101b9576101b8610106565b5b60006101c787828801610154565b94505060206101d88782880161018a565b93505060406101e98782880161018a565b92505060606101fa8782880161018a565b91505092959194509250565b7f4e487b7100000000000000000000000000000000000000000000000000000000600052601160045260246000fd5b60008160011c9050919050565b6000808291508390505b600185111561028c5780860481111561026857610267610206565b5b60018516156102775780820291505b808102905061028585610235565b945061024c565b94509492505050565b6000826102a55760019050610361565b816102b35760009050610361565b81600181146102c957600281146102d357610302565b6001915050610361565b60ff8411156102e5576102e4610206565b5b8360020a9150848211156102fc576102fb610206565b5b50610361565b5060208310610133831016604e8410600b84101617156103375782820a90508381111561033257610331610206565b5b610361565b6103448484846001610242565b9250905081840481111561035b5761035a610206565b5b81810290505b9392505050565b600061037382610169565b915061037e83610169565b92506103ab7fffffffffffffffffffffffffffffffffffffffffffffffffffffffffffffffff8484610295565b905092915050565b60006103be82610169565b91506103c983610169565b92508282026103d781610169565b915082820484148315176103ee576103ed610206565b5b5092915050565b6113d6806104046000396000f3fe6080604052600436106100ab5760003560e01c8063977b055b11610064578063977b055b146101d45780639e1a4d19146101ff578063d0febe4c1461022a578063e086e5ec14610234578063e868764c1461024b578063fc0c546a14610276576100ba565b8063315a095d146100c457806333b5b62e146100ed5780633519a2f81461011857806339f65c0914610141578063518ab2a81461017e5780638da5cb5b146101a9576100ba565b366100ba576100b86102a1565b005b6100c26102a1565b005b3480156100d057600080fd5b506100eb60048036038101906100e69190610c62565b6106a3565b005b3480156100f957600080fd5b5061010261086a565b60405161010f9190610c9e565b60405180910390f35b34801561012457600080fd5b5061013f600480360381019061013a9190610c62565b610870565b005b34801561014d57600080fd5b5061016860048036038101906101639190610d17565b610a19565b6040516101759190610c9e565b60405180910390f35b34801561018a57600080fd5b50610193610a31565b6040516101a09190610c9e565b60405180910390f35b3480156101b557600080fd5b506101be610a37565b6040516101cb9190610d53565b60405180910390f35b3480156101e057600080fd5b506101e9610a5b565b6040516101f69190610c9e565b60405180910390f35b34801561020b57600080fd5b50610214610a61565b6040516102219190610c9e565b60405180910390f35b6102326102a1565b005b34801561024057600080fd5b50610249610b04565b005b34801561025757600080fd5b50610260610bfb565b60405161026d9190610c9e565b60405180910390f35b34801561028257600080fd5b5061028b610c01565b6040516102989190610dcd565b60405180910390f35b600034116102e4576040517f08c379a00000000000000000000000000000000000000000000000000000000081526004016102db90610e45565b60405180910390fd5b600454341015610329576040517f08c379a000000000000000000000000000000000000000000000000000000000815260040161032090610ed7565b60405180910390fd5b60055434111561036e576040517f08c379a000000000000000000000000000000000000000000000000000000000815260040161036590610f69565b60405180910390fd5b60006002543461037e9190610fb8565b90506000600160009054906101000a900473ffffffffffffffffffffffffffffffffffffffff1673ffffffffffffffffffffffffffffffffffffffff166370a08231306040518263ffffffff1660e01b81526004016103dd9190610d53565b602060405180830381865afa1580156103fa573d6000803e3d6000fd5b505050506040513d601f19601f8201168201806040525081019061041e919061100f565b905080821115610463576040517f08c379a000000000000000000000000000000000000000000000000000000000815260040161045a906110ae565b60405180910390fd5b81600660003373ffffffffffffffffffffffffffffffffffffffff1673ffffffffffffffffffffffffffffffffffffffff16815260200190815260200160002060008282546104b291906110ce565b9250508190555081600360008282546104cb91906110ce565b92505081905550600160009054906101000a900473ffffffffffffffffffffffffffffffffffffffff1673ffffffffffffffffffffffffffffffffffffffff1663a9059cbb33846040518363ffffffff1660e01b815260040161052f929190611102565b6020604051808303816000875af115801561054e573d6000803e3d6000fd5b505050506040513d601f19601f820116820180604052508101906105729190611163565b6105b1576040517f08c379a00000000000000000000000000000000000000000000000000000000081526004016105a8906111dc565b60405180910390fd5b3373ffffffffffffffffffffffffffffffffffffffff167f8fafebcaf9d154343dad25669bfa277f4fbacd7ac6b0c4fed522580e040a0f3334846040516105f99291906111fc565b60405180910390a260008054906101000a900473ffffffffffffffffffffffffffffffffffffffff1673ffffffffffffffffffffffffffffffffffffffff166108fc349081150290604051600060405180830381858888f19350505050158015610667573d6000803e3d6000fd5b507f9c6393f251205f9e03559951cab4c9ae71767b6174f77944a5b0c2fa51fbda9f346040516106979190610c9e565b60405180910390a15050565b60008054906101000a900473ffffffffffffffffffffffffffffffffffffffff1673ffffffffffffffffffffffffffffffffffffffff163373ffffffffffffffffffffffffffffffffffffffff1614610731576040517f08c379a000000000000000000000000000000000000000000000000000000000815260040161072890611271565b60405180910390fd5b600160009054906101000a900473ffffffffffffffffffffffffffffffffffffffff1673ffffffffffffffffffffffffffffffffffffffff1663a9059cbb60008054906101000a900473ffffffffffffffffffffffffffffffffffffffff16836040518363ffffffff1660e01b81526004016107ae929190611102565b6020604051808303816000875af11580156107cd573d6000803e3d6000fd5b505050506040513d601f19601f820116820180604052508101906107f19190611163565b610830576040517f08c379a0000000000000000000000000000000000000000000000000000000008152600401610827906112dd565b60405180910390fd5b7f9c6393f251205f9e03559951cab4c9ae71767b6174f77944a5b0c2fa51fbda9f8160405161085f9190610c9e565b60405180910390a150565b60045481565b60008054906101000a900473ffffffffffffffffffffffffffffffffffffffff1673ffffffffffffffffffffffffffffffffffffffff163373ffffffffffffffffffffffffffffffffffffffff16146108fe576040517f08c379a00000000000000000000000000000000000000000000000000000000081526004016108f590611271565b60405180910390fd5b600160009054906101000a900473ffffffffffffffffffffffffffffffffffffffff1673ffffffffffffffffffffffffffffffffffffffff166323b872dd3330846040518463ffffffff1660e01b815260040161095d939291906112fd565b6020604051808303816000875af115801561097c573d6000803e3d6000fd5b505050506040513d601f19601f820116820180604052508101906109a09190611163565b6109df576040517f08c379a00000000000000000000000000000000000000000000000000000000081526004016109d690611380565b60405180910390fd5b7f932461ba6e96b11d9e6e7794a08b1d4a8e6dfd4f1f2d93be10af806b75431e7481604051610a0e9190610c9e565b60405180910390a150565b60066020528060005260406000206000915090505481565b60035481565b60008054906101000a900473ffffffffffffffffffffffffffffffffffffffff1681565b60055481565b6000600160009054906101000a900473ffffffffffffffffffffffffffffffffffffffff1673ffffffffffffffffffffffffffffffffffffffff166370a08231306040518263ffffffff1660e01b8152600401610abe9190610d53565b602060405180830381865afa158015610adb573d6000803e3d6000fd5b505050506040513d601f19601f82011682018060405250810190610aff919061100f565b905090565b60008054906101000a900473ffffffffffffffffffffffffffffffffffffffff1673ffffffffffffffffffffffffffffffffffffffff163373ffffffffffffffffffffffffffffffffffffffff1614610b92576040517f08c379a0000000000000000000000000000000000000000000000000000000008152600401610b8990611271565b60405180910390fd5b60008054906101000a900473ffffffffffffffffffffffffffffffffffffffff1673ffffffffffffffffffffffffffffffffffffffff166108fc479081150290604051600060405180830381858888f19350505050158015610bf8573d6000803e3d6000fd5b50565b60025481565b600160009054906101000a900473ffffffffffffffffffffffffffffffffffffffff1681565b600080fd5b6000819050919050565b610c3f81610c2c565b8114610c4a57600080fd5b50565b600081359050610c5c81610c36565b92915050565b600060208284031215610c7857610c77610c27565b5b6000610c8684828501610c4d565b91505092915050565b610c9881610c2c565b82525050565b6000602082019050610cb36000830184610c8f565b92915050565b600073ffffffffffffffffffffffffffffffffffffffff82169050919050565b6000610ce482610cb9565b9050919050565b610cf481610cd9565b8114610cff57600080fd5b50565b600081359050610d1181610ceb565b92915050565b600060208284031215610d2d57610d2c610c27565b5b6000610d3b84828501610d02565b91505092915050565b610d4d81610cd9565b82525050565b6000602082019050610d686000830184610d44565b92915050565b6000819050919050565b6000610d93610d8e610d8984610cb9565b610d6e565b610cb9565b9050919050565b6000610da582610d78565b9050919050565b6000610db782610d9a565b9050919050565b610dc781610dac565b82525050565b6000602082019050610de26000830184610dbe565b92915050565b600082825260208201905092915050565b7f53656e642045544820746f2062757920746f6b656e7300000000000000000000600082015250565b6000610e2f601683610de8565b9150610e3a82610df9565b602082019050919050565b60006020820190508181036000830152610e5e81610e22565b9050919050565b7f416d6f756e742069732062656c6f7720746865206d696e696d756d207075726360008201527f68617365206c696d697400000000000000000000000000000000000000000000602082015250565b6000610ec1602a83610de8565b9150610ecc82610e65565b604082019050919050565b60006020820190508181036000830152610ef081610eb4565b9050919050565b7f416d6f756e74206578636565647320746865206d6178696d756d20707572636860008201527f617365206c696d69740000000000000000000000000000000000000000000000602082015250565b6000610f53602983610de8565b9150610f5e82610ef7565b604082019050919050565b60006020820190508181036000830152610f8281610f46565b9050919050565b7f4e487b7100000000000000000000000000000000000000000000000000000000600052601160045260246000fd5b6000610fc382610c2c565b9150610fce83610c2c565b9250828202610fdc81610c2c565b91508282048414831517610ff357610ff2610f89565b5b5092915050565b60008151905061100981610c36565b92915050565b60006020828403121561102557611024610c27565b5b600061103384828501610ffa565b91505092915050565b7f4e6f7420656e6f75676820746f6b656e7320696e2074686520636f6e7472616360008201527f7400000000000000000000000000000000000000000000000000000000000000602082015250565b6000611098602183610de8565b91506110a38261103c565b604082019050919050565b600060208201905081810360008301526110c78161108b565b9050919050565b60006110d982610c2c565b91506110e483610c2c565b92508282019050808211156110fc576110fb610f89565b5b92915050565b60006040820190506111176000830185610d44565b6111246020830184610c8f565b9392505050565b60008115159050919050565b6111408161112b565b811461114b57600080fd5b50565b60008151905061115d81611137565b92915050565b60006020828403121561117957611178610c27565b5b60006111878482850161114e565b91505092915050565b7f546f6b656e207472616e73666572206661696c65640000000000000000000000600082015250565b60006111c6601583610de8565b91506111d182611190565b602082019050919050565b600060208201905081810360008301526111f5816111b9565b9050919050565b60006040820190506112116000830185610c8f565b61121e6020830184610c8f565b9392505050565b7f4e6f742074686520636f6e7472616374206f776e657200000000000000000000600082015250565b600061125b601683610de8565b915061126682611225565b602082019050919050565b6000602082019050818103600083015261128a8161124e565b9050919050565b7f546f6b656e207769746864726177616c206661696c6564000000000000000000600082015250565b60006112c7601783610de8565b91506112d282611291565b602082019050919050565b600060208201905081810360008301526112f6816112ba565b9050919050565b60006060820190506113126000830186610d44565b61131f6020830185610d44565b61132c6040830184610c8f565b949350505050565b7f46756e64696e67206661696c6564000000000000000000000000000000000000600082015250565b600061136a600e83610de8565b915061137582611334565b602082019050919050565b600060208201905081810360008301526113998161135d565b905091905056fea2646970667358221220dce52f65efd176fc41d64152e09b886f1894667b6e9e0b5f6276b482643f502164736f6c634300081c0033",
  "linkReferences": {},
  "deployedLinkReferences": {}
}